:10024E00E4FDFCC3ED9FEC9E5015E4FBFA0BBB00E6
:0F025E00010AEB647D4A70F50DBD00010C80E4D0
:01026D00226E
:10026E00E4FDFCC3ED9FEC9E5015E4FBFA0BBB00C6
:0F027E00010AEB64024A70F50DBD00010C80E42B
:01028D00224E
:10028E00EF1392A4EFC3131392A5EF1313543F135E
:0C029E0092A6EF131313541F1392A72213
:1001E4008F17E517C4540FFF12028E7F0A7E001288
:1001F400026ED282C282AF1712028E7F0A7E001272
:07020400026ED282C28222C9
:1002AA008F167FC87E0012026ED280C281AF1612EC
:0B02BA0001E4D282D282D282C28222F2
:04020B007D017F0CE6
:10020F008F16ED60077FC87E0012026EC280C2811A
:0E021F00AF161201E4D282D282D282C28222B3
:10017C007D017F2012020F7F967E0012026E7D01A0
:10018C007F2012020F7F967E0012026E12020B7FEE
:10019C00C87E0012026E7D017F0112020F7F287E45
:0B01AC000012024E7D017F0602020FD0
:0E02C5007D017F0112020F7D017F3002020FCA
:10013E007D017F0812020F7F907E0112024E120285
:10014E000B7F907E0112024E7D017F0812020F7FFF
:10015E00907E0112024E12020B7F907E0112024E11
:0E016E007D017F0812020F7F907E0102024E7B
:1000FE008B15EDC3940150027D01EDD394044002A3
:10010E007D0453070FED24FE600F1460111460136D
:10011E0024037012430780800D4307908008430725
:10012E00888003430798E4FD12020FAF150202AA5E
:08008D008F108B118A128913F8
:10009500E4F514EDC3940150027D01EDD3940440C1
:1000A500027D0453100FED24FE600F1460111460DF
:1000B5001324037012430780800D43079080084383
:1000C500078880034307987D0112020FAB11AA121E
:1000D500A9138514827583001201B7FFC3942040CC
:1000E50017E510D3940F50E41202AA051405107FEA
:0800F500057E0012024E80D4CA
:0100FD0022E0
:060003008B088A09890A3E
:10000900E4F50EF50FF50DE50DC394095068E4F517
:100019000B7D017F3412020FE50B2480FF7D011255
:10002900020FE50D2480FF7D0112020F7D017F3053
:1000390012020FE4F50C7E00E50F250CFFEE350EDC
:10004900AB08AA09A90A8F82F5831201B7FF120228
:10005900AA050CE50CC3941040DC7410250FF50FAC
:10006900E4350EF50E050BE50BC3942040A3740887
:10007900250DF50D80917D017F3612020F7D017FDF
:040089003002020F30
:10022D007F907E0112024E12017C7F057E0012022C
:10023D004ED2851202C57B417D017F011200FE80E9
:01024D00FEB2
:030000000202D326
:0C02D300787FE4F6D8FD75811702022D3B
:1001B700BB010CE58229F582E5833AF583E02250FD
:1001C70006E92582F8E622BBFE06E92582F8E22247
:0D01D700E58229F582E5833AF583E4932261
:00000001FF
