:1001CC0057454C4C434F4D4520544F21004D494E03
:1001DC0048484147524F555020002031312F4E3660
:1001EC00362D4443562D48425400383035312F417A
:0B01FC0056522F5049432F41524D0036
:1000FA007F907E0112028B1202077F057E00120298
:10010A008BD2851202E47BFF7A0179CC7D017F01D3
:10011A001200897BFF7A0179D97D027F0112008959
:10012A007BFF7A0179E67D03E4FF1200897BFF7A7F
:0C013A000179F67D04E4FF12008980CA00
:1002CB008F157FC87E001202ABD280C2818515A02C
:0902DB00D282D282D282C28222B8
:04026B007D017F3062
:10026F008F15ED60077FC87E001202ABC280C2817E
:0C027F008515A0D282D282D282C28222D7
:1002070012026B7F967E001202AB12026B7F327E68
:10021700001202AB7D017F0C12026F7F787E001205
:1002270002AB7D017F0112026F7F287E0012028BD5
:070237007D017F0602026F4A
:0E02E4007D017F0112026F7D017F3002026FEB
:100146007D017F0812026F7F907E0112028B7D0176
:100156007F0C12026F7F907E0112028B7D017F0859
:1001660012026F7F907E0112028B7D017F0C1202BC
:100176006F7F907E0112028B7D017F0812026F7FD6
:06018600907E0102028BD5
:10018C008B16EDC3940150027D01EDD39404400213
:10019C007D0453070FED24FE600F146011146013DF
:1001AC0024037012430780800D4307908008430797
:1001BC00888003430798E4FD12026FAF160202CB4E
:080089008F108B118A128913FC
:10009100E4F514EDC3940150027D01EDD3940440C5
:1000A100027D0453100FED24FE600F1460111460E3
:1000B1001324037012430780800D43079080084387
:1000C100078880034307987D0112026FAB11AA12C2
:1000D100A91385148275830012023EFFC394204048
:1000E10017E510D3940F50E41202CB051405107FCD
:0800F100057E0012028B80D491
:0100F90022E4
:060003008B088A09890A3E
:10000900E4F50EF50FF50DE50DC394095064E4F51B
:100019000B7D017F3412026FE50B2480FF7D0112F5
:10002900026FE50D2480FF7D0112026F12026BE45D
:10003900F50C7E00E50F250CFFEE350EAB08AA097D
:10004900A90A8F82F58312023EFF1202CB050CE545
:100059000CC3941040DC7410250FF50FE4350EF530
:100069000E050BE50BC3942040A77408250DF50D6B
:1000790080957D017F3612026F7D017F3002026F0C
:10028B00E4FDFCC3ED9FEC9E5015E4FBFA0BBB00A9
:0F029B00010AEB647D4A70F50DBD00010C80E493
:0102AA002231
:1002AB00E4FDFCC3ED9FEC9E5015E4FBFA0BBB0089
:0F02BB00010AEB64024A70F50DBD00010C80E4EE
:0102CA002211
:030000000202F207
:0C02F200787FE4F6D8FD7581160200FA52
:10023E00BB010CE58229F582E5833AF583E0225075
:10024E0006E92582F8E622BBFE06E92582F8E222BF
:0D025E00E58229F582E5833AF583E49322D9
:00000001FF
